{
  "_format": "hh-sol-artifact-1",
  "contractName": "MediClaimMNEE",
  "sourceName": "contracts/MediClaim.sol",
  "abi": [
    {
      "inputs": [],
      "stateMutability": "nonpayable",
      "type": "constructor"
    },
    {
      "inputs": [],
      "name": "OnlyOwner",
      "type": "error"
    },
    {
      "inputs": [],
      "name": "TransferFailed",
      "type": "error"
    },
    {
      "anonymous": false,
      "inputs": [
        {
          "indexed": true,
          "internalType": "address",
          "name": "provider",
          "type": "address"
        },
        {
          "indexed": false,
          "internalType": "uint256",
          "name": "amount",
          "type": "uint256"
        },
        {
          "indexed": true,
          "internalType": "bytes32",
          "name": "documentHash",
          "type": "bytes32"
        },
        {
          "indexed": false,
          "internalType": "uint256",
          "name": "timestamp",
          "type": "uint256"
        }
      ],
      "name": "PaymentSettled",
      "type": "event"
    },
    {
      "inputs": [],
      "name": "owner",
      "outputs": [
        {
          "internalType": "address",
          "name": "",
          "type": "address"
        }
      ],
      "stateMutability": "view",
      "type": "function"
    },
    {
      "inputs": [
        {
          "internalType": "address payable",
          "name": "provider",
          "type": "address"
        },
        {
          "internalType": "uint256",
          "name": "amount",
          "type": "uint256"
        },
        {
          "internalType": "bytes32",
          "name": "documentHash",
          "type": "bytes32"
        }
      ],
      "name": "payProvider",
      "outputs": [],
      "stateMutability": "payable",
      "type": "function"
    },
    {
      "stateMutability": "payable",
      "type": "receive"
    }
  ],
  "bytecode": "0x608060405234801561001057600080fd5b50336000806101000a81548173ffffffffffffffffffffffffffffffffffffffff021916908373ffffffffffffffffffffffffffffffffffffffff160217905550610435806100606000396000f3fe60806040526004361061002d5760003560e01c80638da5cb5b14610039578063f95e434b1461006457610034565b3661003457005b600080fd5b34801561004557600080fd5b5061004e610080565b60405161005b9190610264565b60405180910390f35b61007e6004803603810190610079919061032e565b6100a4565b005b60008054906101000a900473ffffffffffffffffffffffffffffffffffffffff1681565b60008054906101000a900473ffffffffffffffffffffffffffffffffffffffff1673ffffffffffffffffffffffffffffffffffffffff163373ffffffffffffffffffffffffffffffffffffffff1614610129576040517f5fc483c500000000000000000000000000000000000000000000000000000000815260040160405180910390fd5b60008373ffffffffffffffffffffffffffffffffffffffff168360405161014f906103b2565b60006040518083038185875af1925050503d806000811461018c576040519150601f19603f3d011682016040523d82523d6000602084013e610191565b606091505b50509050806101cc576040517f90b8ec1800000000000000000000000000000000000000000000000000000000815260040160405180910390fd5b818473ffffffffffffffffffffffffffffffffffffffff167f09967b6d766cec6b6928cb4009ac7d42dc68be5bd85e6767afe69010197def1185426040516102159291906103d6565b60405180910390a350505050565b600073ffffffffffffffffffffffffffffffffffffffff82169050919050565b600061024e82610223565b9050919050565b61025e81610243565b82525050565b60006020820190506102796000830184610255565b92915050565b600080fd5b600061028f82610223565b9050919050565b61029f81610284565b81146102aa57600080fd5b50565b6000813590506102bc81610296565b92915050565b6000819050919050565b6102d5816102c2565b81146102e057600080fd5b50565b6000813590506102f2816102cc565b92915050565b6000819050919050565b61030b816102f8565b811461031657600080fd5b50565b60008135905061032881610302565b92915050565b6000806000606084860312156103475761034661027f565b5b6000610355868287016102ad565b9350506020610366868287016102e3565b925050604061037786828701610319565b9150509250925092565b600081905092915050565b50565b600061039c600083610381565b91506103a78261038c565b600082019050919050565b60006103bd8261038f565b9150819050919050565b6103d0816102c2565b82525050565b60006040820190506103eb60008301856103c7565b6103f860208301846103c7565b939250505056fea26469706673582212209d8711c3c18d02aeabfdc164091995695313a9e000062e6be990d09bcf26171064736f6c63430008130033",
  "linkReferences": {},
  "deployedLinkReferences": {}
}